:100000000C9434000C9449000C9449000C94490061
:100010000C9449000C9449000C9449000C9449003C
:100020000C9449000C9449000C9449000C9449002C
:100030000C9449000C9449000C9449000C9449001C
:100040000C9449000C9449000C9449000C9449000C
:100050000C9449000C9449000C9449000C944900FC
:100060000C9449000C94490011241FBECFEFD8E036
:10007000DEBFCDBF11E0A0E0B1E0E6E3F1E002C0F9
:1000800005900D92A630B107D9F70E9494000C9408
:1000900099000C9400009BB19F70282F207F922B19
:1000A0009BB99BB198609BB99BB194609BB935E0BB
:1000B0003A95F1F700009BB19B7F9BB9EFE1F3E02C
:1000C0003197F1F700C000002BB1F0E18F9FC00124
:1000D0001124922F9F70892B8BB98BB184608BB9BF
:1000E00035E03A95F1F700008BB18B7F8BB98FE348
:1000F0009FE10197F1F700C0000008950F931F934F
:10010000CF93DF938C01C0E0D0E003C00E944B008E
:100110002196F801EC0FFD1F80818111F7CFDF914F
:10012000CF911F910F91089580E091E00E947E0091
:06013000FBCFF894FFCFA5
:0601360048656C6C6F00CF
:00000001FF
