:100000000C9434000C9451000C9451000C94510049
:100010000C9451000C9451000C9451000C9451001C
:100020000C9451000C9451000C9451000C9451000C
:100030000C9451000C9451000C9451000C945100FC
:100040000C9451000C9451000C9451000C945100EC
:100050000C9451000C9451000C9451000C945100DC
:100060000C9451000C94510011241FBECFEFD8E026
:10007000DEBFCDBF11E0A0E0B1E0ECE9F8E002C0E6
:1000800005900D92A633B107D9F721E0A6E3B1E0C0
:1000900001C01D92AC39B207E1F70E94A7010C9490
:1000A0004C040C9400009BB19F70282F207F922B52
:1000B0009BB99BB1977F9BB99BB194609BB935E08D
:1000C0003A95F1F700009BB19B7F9BB9EFE1F3E01C
:1000D0003197F1F700C000002BB1F0E18F9FC00114
:1000E0001124922F9F70892B8BB98BB184608BB9AF
:1000F00035E03A95F1F700008BB18B7F8BB98FE338
:100100009FE10197F1F700C0000008959BB19F7037
:10011000282F207F922B9BB99BB198609BB99BB1F4
:1001200094609BB935E03A95F1F700009BB19B7F55
:100130009BB9EFE1F3E03197F1F700C000002BB17C
:10014000F0E18F9FC0011124922F9F70892B8BB9F2
:100150008BB184608BB935E03A95F1F700008BB133
:100160008B7F8BB98FE39FE10197F1F700C000000F
:1001700008958FEF8AB92FEF89EF90E021508040EA
:100180009040E1F700C000008BB18B7F8BB983E317
:100190000E9453008FE891E00197F1F700C0000042
:1001A00082E30E9453008FE891E00197F1F700C0CD
:1001B000000088E20E9453008FE891E00197F1F778
:1001C00000C000008CE00E9453008FE891E001978E
:1001D000F1F700C0000081E00E9453008FE891E039
:1001E0000197F1F700C0000086E00E9453008FE8FD
:1001F00091E00197F1F700C0000082E00E945300F7
:100200008FE891E00197F1F700C0000088E20E94BA
:1002100053008FE891E00197F1F700C000008CE0F7
:100220000E9453008FE891E00197F1F700C00000B1
:1002300086E00E9453008FE891E00197F1F700C03B
:10024000000081E00E9453008FE891E00197F1F7F0
:1002500000C000008FE39FE10197F1F700C00000AC
:100260000895CF93DF9300D000D0CDB7DEB790E8EC
:10027000998390EC9A8394E99B8394ED9C83E82F77
:10028000F0E0319781E090E08C0F9D1FE80FF91F9F
:100290008081860F81500E9453008FE891E0019782
:1002A000F1F700C000000F900F900F900F90DF91BA
:1002B000CF9108950F931F93CF93DF938C01C0E0EC
:1002C000D0E003C00E9486002196F801EC0FFD1FCC
:1002D00080818111F7CFDF91CF911F910F91089508
:1002E00081E00E9453008FE39FE10197F1F700C086
:1002F000000080E80E9453008FE39FE10197F1F72F
:1003000000C0000008959093C5008093C40088E168
:100310008093C10086E08093C20008958091C00060
:100320008823E4F78091C6000895CF93DF93EC0112
:100330000E948E0189938D37D9F7DF91CF9108956F
:10034000E1ECF0E080818068808378940895CF9319
:10035000DF93CDB7DEB7CE52D2400FB6F894DEBFF2
:100360000FBECDBF82E1E9E1F1E0DE011796019019
:100370000D928A95E1F78AE0EBE2F1E0DE015F960B
:1003800001900D928A95E1F70E94B90087E690E00E
:100390000E9483010E94A001E12CF12C00E010E0FA
:1003A00080E091E00E945A012AEA36EE46E951E0E7
:1003B0002150304040405040D9F7000086E391E0A2
:1003C0000E94950180919A0190919B01019709F0FB
:1003D000B4C10FC0FC013797DC01AA5CBE4F2C9161
:1003E00049E250E04C0F5D1FE40FF51F208301969A
:1003F00002C087E090E08831910564F31AAEBE0137
:10040000695F7F4FCE0189960E94ED03892B09F029
:10041000C2C066E071E086E391E00E94FD03BC018A
:10042000CE0185539E4F0E94F60369E071E086E39A
:1004300091E00E94FD03BC01CE0183509E4F0E94BB
:10044000F603C153DE4F8881CF5CD14090E0C09766
:100450009C01220F331F880F991F880F991F880F47
:10046000991F820F931FC053DE4F4881C05DD1405A
:1004700050E040535109480F591FCF5FDD4F88812D
:10048000C150D24090E0C0979C01220F331F880FCB
:10049000991F880F991F880F991F820F931FCE5F96
:1004A000DD4F2881C250D24030E020533109820F05
:1004B000931F9801220F331FE1E0F0E0EC0FFD1FC6
:1004C000E20FF31F53AF42AFEFE9F0E0EC0FFD1F77
:1004D000E20FF31F9183808360E070E080E090E0A2
:1004E000FB01EE0FFF1F21E030E02C0F3D1FE20F5C
:1004F000F31F22AD33AD820F931F6F5F7F4F6233C7
:10050000710569F0FB01EE0FFF1F41E050E04C0F59
:100510005D1FE40FF51F22AD33AD232B09F70E94B9
:10052000C503CB014AE0BE016F5F7F4F0E941704F5
:1005300060E070E080E090E0FB01EE0FFF1F2FE92C
:1005400030E02C0F3D1FE20FF31F20813181820F1D
:10055000931F6F5F7F4F6233710569F0FB01EE0FF0
:10056000FF1F4FE950E04C0F5D1FE40FF51F208186
:100570003181232B09F70E94C503CB014AE0BE015C
:100580006C5F7F4F0E9417040F5F1F4F02331105EE
:1005900011F400E010E0BE01615E7F4FCE0189964C
:1005A0000E94ED03892B09F0C4C066E071E086E388
:1005B00091E00E94FD03BC01CE0185539E4F0E9435
:1005C000F60369E071E086E391E00E94FD03BC015F
:1005D000CE0183509E4F0E94F603C153DE4F8881A7
:1005E000CF5CD14090E0C0979C01220F331F880F51
:1005F000991F880F991F880F991F820F931FC0534F
:10060000DE4F4881C05DD14050E040535109480F52
:10061000591FCF5FDD4F8881C150D24090E0C09715
:100620009C01220F331F880F991F880F991F880F75
:10063000991F820F931FCE5FDD4F2881C250D24099
:1006400030E020533109820F931F9701220F331F8F
:10065000E3E0F1E0EC0FFD1FE20FF31F5183408355
:10066000E7E6F1E0EC0FFD1FE20FF31F91838083BB
:1006700060E070E080E090E0FB01EE0FFF1F23E000
:1006800031E02C0F3D1FE20FF31F20813181820FDB
:10069000931F6F5F7F4F6233710569F0FB01EE0FAF
:1006A000FF1F43E051E04C0F5D1FE40FF51F208159
:1006B0003181232B09F70E94C503CB014AE0BE011B
:1006C000675E7F4F0E94170460E070E080E090E07A
:1006D000FB01EE0FFF1F27E631E02C0F3D1FE20F5D
:1006E000F31F20813181820F931F6F5F7F4F623331
:1006F000710569F0FB01EE0FFF1F47E651E04C0F5B
:100700005D1FE40FF51F20813181232B09F70E9423
:10071000C503CB014AE0BE01645E7F4F0E9417040F
:100720005FEFE51AF50A82E3E816F10411F4E12C13
:10073000F12C10929B0110929A010E947001CE013F
:1007400007960E945A0161E082E00E9431018CE02C
:1007500091E00E945A01CE0101960E945A0181E166
:1007600091E00E945A0184E191E00E945A01CE0179
:1007700004960E945A019FEF21EE34E091502040F0
:100780003040E1F700C000000BCE97FB072E16F4B7
:10079000009407D077FD09D00E94D90307FC05D04B
:1007A0003EF4909581959F4F0895709561957F4F88
:1007B0000895AA1BBB1B51E107C0AA1FBB1FA617A8
:1007C000B70710F0A61BB70B881F991F5A95A9F7FA
:1007D00080959095BC01CD010895FB01DC018D91C0
:1007E000019080190110D9F3990B0895FB01DC01E8
:1007F00001900D920020E1F70895FB0151915523DE
:10080000A9F0BF01DC014D9145174111E1F759F401
:10081000CD010190002049F04D9140154111C9F3DF
:10082000FB014111EFCF81E090E001970895BB27D4
:100830004A3031F4992322F4BDE2909581959F4F7F
:100840000C942304BB27FB015527AA27880F991F67
:10085000AA1FA41710F0A41B83955051B9F7A05DEF
:10086000AA3308F0A95DA193009779F7B111B1936C
:100870001192CB010C943C04DC01FC01672F7191B7
:100880007723E1F7329704C07C916D937083629176
:0C089000AE17BF07C8F30895F894FFCF1F
:10089C0048656C6C6F0072650074790074656D3A14
:1008AC00002D2D0068756D3A0045433A46413A4299
:1008BC00433A35463A38343A4139003938373635C7
:0608CC003433323100005C
:00000001FF
